{
  "contractName": "CreateRealState",
  "abi": [
    {
      "anonymous": false,
      "inputs": [
        {
          "indexed": false,
          "internalType": "uint256",
          "name": "propertyId",
          "type": "uint256"
        },
        {
          "indexed": false,
          "internalType": "uint256",
          "name": "propertyDescription",
          "type": "uint256"
        },
        {
          "indexed": false,
          "internalType": "uint256",
          "name": "hashproperty",
          "type": "uint256"
        },
        {
          "indexed": false,
          "internalType": "uint256",
          "name": "timeCreated",
          "type": "uint256"
        }
      ],
      "name": "Newproperty",
      "type": "event"
    },
    {
      "anonymous": false,
      "inputs": [
        {
          "indexed": true,
          "internalType": "address",
          "name": "previousOwner",
          "type": "address"
        }
      ],
      "name": "OwnershipRenounced",
      "type": "event"
    },
    {
      "anonymous": false,
      "inputs": [
        {
          "indexed": true,
          "internalType": "address",
          "name": "previousOwner",
          "type": "address"
        },
        {
          "indexed": true,
          "internalType": "address",
          "name": "newOwner",
          "type": "address"
        }
      ],
      "name": "OwnershipTransferred",
      "type": "event"
    },
    {
      "constant": true,
      "inputs": [],
      "name": "owner",
      "outputs": [
        {
          "internalType": "address",
          "name": "",
          "type": "address"
        }
      ],
      "payable": false,
      "stateMutability": "view",
      "type": "function"
    },
    {
      "constant": true,
      "inputs": [
        {
          "internalType": "uint256",
          "name": "",
          "type": "uint256"
        }
      ],
      "name": "propertys",
      "outputs": [
        {
          "internalType": "uint256",
          "name": "propertyId",
          "type": "uint256"
        },
        {
          "internalType": "uint256",
          "name": "hashproperty",
          "type": "uint256"
        },
        {
          "internalType": "uint256",
          "name": "timeCreated",
          "type": "uint256"
        }
      ],
      "payable": false,
      "stateMutability": "view",
      "type": "function"
    },
    {
      "constant": false,
      "inputs": [],
      "name": "renounceOwnership",
      "outputs": [],
      "payable": false,
      "stateMutability": "nonpayable",
      "type": "function"
    },
    {
      "constant": false,
      "inputs": [
        {
          "internalType": "address",
          "name": "_newOwner",
          "type": "address"
        }
      ],
      "name": "transferOwnership",
      "outputs": [],
      "payable": false,
      "stateMutability": "nonpayable",
      "type": "function"
    },
    {
      "constant": false,
      "inputs": [
        {
          "internalType": "uint256",
          "name": "_name",
          "type": "uint256"
        }
      ],
      "name": "createRandompropertyId",
      "outputs": [
        {
          "internalType": "uint256",
          "name": "",
          "type": "uint256"
        }
      ],
      "payable": false,
      "stateMutability": "nonpayable",
      "type": "function"
    }
  ],
  "bytecode": "0x60806040526012600155600154600a0a600255336000806101000a81548173ffffffffffffffffffffffffffffffffffffffff021916908373ffffffffffffffffffffffffffffffffffffffff16021790555061077e806100616000396000f3fe608060405234801561001057600080fd5b50600436106100575760003560e01c8063037dadc31461005c5780636ac148471461009e578063715018a6146100ee5780638da5cb5b146100f8578063f2fde38b14610142575b600080fd5b6100886004803603602081101561007257600080fd5b8101908080359060200190929190505050610186565b6040518082815260200191505060405180910390f35b6100ca600480360360208110156100b457600080fd5b8101908080359060200190929190505050610222565b60405180848152602001838152602001828152602001935050505060405180910390f35b6100f6610259565b005b610100610359565b604051808273ffffffffffffffffffffffffffffffffffffffff1673ffffffffffffffffffffffffffffffffffffffff16815260200191505060405180910390f35b6101846004803603602081101561015857600080fd5b81019080803573ffffffffffffffffffffffffffffffffffffffff16906020019092919050505061037e565b005b60008073ffffffffffffffffffffffffffffffffffffffff166006600084815260200190815260200160002060009054906101000a900473ffffffffffffffffffffffffffffffffffffffff1673ffffffffffffffffffffffffffffffffffffffff16146101f357600080fd5b60006101fe836103e3565b90506064818161020a57fe5b06810390506102198382610438565b80915050919050565b6003818154811061022f57fe5b90600052602060002090600302016000915090508060000154908060010154908060020154905083565b6000809054906101000a900473ffffffffffffffffffffffffffffffffffffffff1673ffffffffffffffffffffffffffffffffffffffff163373ffffffffffffffffffffffffffffffffffffffff16146102b257600080fd5b6000809054906101000a900473ffffffffffffffffffffffffffffffffffffffff1673ffffffffffffffffffffffffffffffffffffffff167ff8df31144d9c2f0f6b59d69b8b98abd5459d07f2742c4df920b25aae33c6482060405160405180910390a260008060006101000a81548173ffffffffffffffffffffffffffffffffffffffff021916908373ffffffffffffffffffffffffffffffffffffffff160217905550565b6000809054906101000a900473ffffffffffffffffffffffffffffffffffffffff1681565b6000809054906101000a900473ffffffffffffffffffffffffffffffffffffffff1673ffffffffffffffffffffffffffffffffffffffff163373ffffffffffffffffffffffffffffffffffffffff16146103d757600080fd5b6103e081610635565b50565b6000806103f9428461072d90919063ffffffff16565b604051602001808281526020019150506040516020818303038152906040528051906020012060001c9050600254818161042f57fe5b06915050919050565b600060016003604051806060016040528086815260200185815260200142815250908060018154018082558091505090600182039060005260206000209060030201600090919290919091506000820151816000015560208201518160010155604082015181600201555050039050336004600083815260200190815260200160002060006101000a81548173ffffffffffffffffffffffffffffffffffffffff021916908373ffffffffffffffffffffffffffffffffffffffff160217905550336006600085815260200190815260200160002060006101000a81548173ffffffffffffffffffffffffffffffffffffffff021916908373ffffffffffffffffffffffffffffffffffffffff16021790555061059e6001600560003373ffffffffffffffffffffffffffffffffffffffff1673ffffffffffffffffffffffffffffffffffffffff1681526020019081526020016000205461072d90919063ffffffff16565b600560003373ffffffffffffffffffffffffffffffffffffffff1673ffffffffffffffffffffffffffffffffffffffff168152602001908152602001600020819055507f4a11a9b3f0328ca002f1ae27f5ed710bafb8e760331cc88d0d393bf2629a0a50818484426040518085815260200184815260200183815260200182815260200194505050505060405180910390a1505050565b600073ffffffffffffffffffffffffffffffffffffffff168173ffffffffffffffffffffffffffffffffffffffff16141561066f57600080fd5b8073ffffffffffffffffffffffffffffffffffffffff166000809054906101000a900473ffffffffffffffffffffffffffffffffffffffff1673ffffffffffffffffffffffffffffffffffffffff167f8be0079c531659141344cd1fd0a4f28419497f9722a3daafe3b4186f6b6457e060405160405180910390a3806000806101000a81548173ffffffffffffffffffffffffffffffffffffffff021916908373ffffffffffffffffffffffffffffffffffffffff16021790555050565b60008082840190508381101561073f57fe5b809150509291505056fea265627a7a723158201093579daecf0270ef0916bca8fae56a87bb8e92fdbbbb7f8596c3e63065641164736f6c63430005100032",
  "source": "pragma solidity >=0.4.21 <0.7.0;\n\n\n\nimport \"./Ownable.sol\";\nimport \"./SafeMath.sol\";\n\ncontract CreateRealState is Ownable {\n\n  using SafeMath for uint256;\n\n  event Newproperty(uint propertyId, uint propertyDescription, uint256 hashproperty, uint timeCreated);\n\n  uint Digits = 18;\n  uint Modulus = 10 ** Digits;\n\n  struct Property {\n    uint propertyId;\n    uint256 hashproperty;\n    uint timeCreated;\n  }\n\n  Property[] public propertys;\n\n  mapping (uint => address)  propertyToOwner;\n  mapping (address => uint) ownerpropertyCount;\n  mapping (uint => address) tokenToOwner;\n\n  function _createproperty(uint _propertyId, uint _hashproperty) internal {\n    uint id = propertys.push(Property(_propertyId, _hashproperty, now)) - 1;\n    propertyToOwner[id] = msg.sender;\n    tokenToOwner[_propertyId] = msg.sender;\n    ownerpropertyCount[msg.sender] = ownerpropertyCount[msg.sender].add(1);\n    emit Newproperty(id, _propertyId, _hashproperty, now);\n  }\n\n  function _generateRandomhashproperty(uint _name) private view returns (uint) {\n    uint rand = uint(keccak256(abi.encodePacked(_name.add(now))));\n    return rand % Modulus;\n  }\n\n  function createRandompropertyId(uint _name) public returns (uint){\n    require(tokenToOwner[_name] == 0x0000000000000000000000000000000000000000);\n    uint randhash = _generateRandomhashproperty(_name);\n    randhash = randhash - randhash % 100;\n    _createproperty(_name, randhash);\n    return randhash;\n  }\n}                   \n\n",
  "sourcePath": "/home/jose/Desktop/Upwork/1. Proyectos en Curso/Real-State-Contracts/tokenERC721/contracts/CreateRealState.sol",
  "compiler": {
    "name": "solc",
    "version": "0.5.16+commit.9c3226ce.Emscripten.clang"
  },
  "schemaVersion": "3.1.0",
  "updatedAt": "2020-05-06T20:31:53.561Z",
  "devdoc": {
    "methods": {
      "renounceOwnership()": {
        "details": "Allows the current owner to relinquish control of the contract."
      },
      "transferOwnership(address)": {
        "details": "Allows the current owner to transfer control of the contract to a newOwner.",
        "params": {
          "_newOwner": "The address to transfer ownership to."
        }
      }
    }
  },
  "userdoc": {
    "methods": {
      "renounceOwnership()": {
        "notice": "Renouncing to ownership will leave the contract without an owner. It will not be possible to call the functions with the `onlyOwner` modifier anymore."
      }
    }
  }
}